:060000000A128A119D2F77
:100F3A0083010A128A11A12F8316031388018312CF
:100F4A000313880108140130F0000030F1000A127E
:100F5A008A11C1270A128A11831203130810013059
:100F6A00F0000030F1000A128A11C1270A128A1110
:100F7A00A72F0A128A1100280030F3000030F4006B
:100F8A00F12F0030F5000030F6007608803AFE00B6
:100F9A0080307E02031DD32F64307502031CD62FC6
:100FAA00D72FD82FEB2F0130F5070318F60A003098
:100FBA00F6077608803AFE0080307E02031DE72F8E
:100FCA0064307502031CEA2FEB2FD82F0130F30788
:100FDA000318F40A0030F4077408803AF200710822
:100FEA00803A7202031DFB2F70087302031CFE2F46
:060FFA00FF2FC62F0800C6
:00000001FF
